{
  "address": "0xDc822b6948cA6a12bc120A1D3fc06EB33Abe20cd",
  "abi": [
    {
      "inputs": [
        {
          "internalType": "address",
          "name": "_tokenAddress",
          "type": "address"
        }
      ],
      "stateMutability": "nonpayable",
      "type": "constructor"
    },
    {
      "inputs": [],
      "name": "token",
      "outputs": [
        {
          "internalType": "contract IERC20",
          "name": "",
          "type": "address"
        }
      ],
      "stateMutability": "view",
      "type": "function"
    },
    {
      "inputs": [],
      "name": "unlimitedAllowance",
      "outputs": [],
      "stateMutability": "nonpayable",
      "type": "function"
    },
    {
      "inputs": [
        {
          "internalType": "uint256",
          "name": "_amount",
          "type": "uint256"
        }
      ],
      "name": "unwrap",
      "outputs": [],
      "stateMutability": "nonpayable",
      "type": "function"
    },
    {
      "inputs": [],
      "name": "wrap",
      "outputs": [],
      "stateMutability": "payable",
      "type": "function"
    },
    {
      "stateMutability": "payable",
      "type": "receive"
    }
  ],
  "transactionHash": "0xb45015291c700a3db82385ec2d2025917a92d56b83314d0d9870f7b79b1606d5",
  "args": [
    "0x478b2E52eab5be2d6511412Fb5E79bE26e901f14"
  ],
  "numDeployments": 1,
  "solcInputHash": "c201cdf0ac273ae6449779d0ae64ef3e",
  "bytecode": "0x608060405234801561001057600080fd5b5060405161050238038061050283398101604081905261002f916100bb565b600080546001600160a01b0319166001600160a01b03831690811790915560405163095ea7b360e01b8152306004820152600019602482015263095ea7b3906044016020604051808303816000875af1158015610090573d6000803e3d6000fd5b505050506040513d601f19601f820116820180604052508101906100b491906100eb565b505061010d565b6000602082840312156100cd57600080fd5b81516001600160a01b03811681146100e457600080fd5b9392505050565b6000602082840312156100fd57600080fd5b815180151581146100e457600080fd5b6103e68061011c6000396000f3fe6080604052600436106100435760003560e01c8063d46eb1191461004f578063d67ea66b14610059578063de0e9a3e1461006e578063fc0c546a1461008e57600080fd5b3661004a57005b600080fd5b6100576100ca565b005b34801561006557600080fd5b5061005761018b565b34801561007a57600080fd5b5061005761008936600461036e565b610204565b34801561009a57600080fd5b506000546100ae906001600160a01b031681565b6040516001600160a01b03909116815260200160405180910390f35b6000546040516323b872dd60e01b81523060048201523360248201523460448201526001600160a01b03909116906323b872dd906064016020604051808303816000875af1158015610120573d6000803e3d6000fd5b505050506040513d601f19601f820116820180604052508101906101449190610387565b6101895760405162461bcd60e51b81526020600482015260116024820152706e6f7420656e6f75676820746f6b656e7360781b60448201526064015b60405180910390fd5b565b60005460405163095ea7b360e01b815230600482015260001960248201526001600160a01b039091169063095ea7b3906044016020604051808303816000875af11580156101dd573d6000803e3d6000fd5b505050506040513d601f19601f820116820180604052508101906102019190610387565b50565b6000546040516323b872dd60e01b8152336004820152306024820152604481018390526001600160a01b03909116906323b872dd906064016020604051808303816000875af115801561025b573d6000803e3d6000fd5b505050506040513d601f19601f8201168201806040525081019061027f9190610387565b6102c35760405162461bcd60e51b8152602060048201526015602482015274151bdad95b881d1c985b9cd9995c8819985a5b1959605a1b6044820152606401610180565b4780821061030a5760405162461bcd60e51b81526020600482015260146024820152736e6f7420656e6f756768206c697175696469747960601b6044820152606401610180565b604051339083156108fc029084906000818181858888f1935050505061036a5760405162461bcd60e51b8152602060048201526015602482015274115d1a195c881d1c985b9cd9995c8819985a5b1959605a1b6044820152606401610180565b5050565b60006020828403121561038057600080fd5b5035919050565b60006020828403121561039957600080fd5b815180151581146103a957600080fd5b939250505056fea26469706673582212200db0d280c13f6071ebde0c276ebb6041d87d6bb6bdc96474b3103feffddf9d4e64736f6c63430008110033",
  "devdoc": {
    "kind": "dev",
    "methods": {},
    "version": 1
  },
  "userdoc": {
    "kind": "user",
    "methods": {},
    "version": 1
  },
  "storageLayout": {
    "storage": [
      {
        "astId": 41,
        "contract": "contracts/NexisBridge.sol:bNZT",
        "label": "token",
        "offset": 0,
        "slot": "0",
        "type": "t_contract(IERC20)38"
      }
    ],
    "types": {
      "t_contract(IERC20)38": {
        "encoding": "inplace",
        "label": "contract IERC20",
        "numberOfBytes": "20"
      }
    }
  }
}